0500400001NNNNNNNN1V000Z  24755421277152772714556100037191003000000069039840000000069039840HILTON GV TVVS LN SVC    ORLANDO      US 350432821FL  11000N0060702 1 0112780
0600400002NNNNNNNN2V000   24011341277000019758722100699171003000000001699840000000001699840UDEMY: ONLINE COURSES    HTTPSWWW.UDEMUS 829994107CA   1000N0043710 4 0112780
0700BBBBBBNNNNNNNN3V000Z  74934851277569535110003000000001004000000013536840000010750000152CASTILLO 1094    .       VALDIVIA     CL 601100000   9 1000E0429175   051278H
0500400003NNNNNNNN4V000Z  24234261277000000470759423426001004000000073999032000000073999032MERCADOPAGO*WORLDSEG     BUENOS AIRES AR 507200000     1008N006645  4   12780
0500400004NNNNNNNN5V000Z  24234261277000000459240423426001004000000219600032000000219600032MERCADOPAGO*ROMIP        BUENOS AIRES AR 521100000     1008N824480  4   12780
0600400005NNNNNNNN6V000   74234261276000000465748423426001003000000158324032000000158324032MERCADOPAGO*CETRANGOLOSCSBUENOS AIRES AR 591200000     1008N008572  4   12780
0600400006NNNNNNNN7V000   74234261277000000466273423426001004000000118022032000000118022032MERCADOPAGO*MORGAN       BUENOS AIRES AR 573200000     1008N007419  4   12780
0700400007NNNNNNNN8V000Z  74066501277000210093125000000001004000000500000032000000500000032Los Quimbaletes Villa GiaVilla GiardinAR 601100000     1008N0432295 2 0512782
