0500400001NNNNNNNN1V000Z  24755421277152772714556100037191003000000069039840000000069039840HILTON GV TVVS LN SVC    ORLANDO      US 350432821FL  11000N0060702 1 0112780
0501            000000                                                     948S 21-8029890699  90699768000000000000  127800    V40  0004762091               000000000  
0503            LG        0000000    21100200000000000000000000000000000000000000000000000000000000000000000000000000                                                   
0505461276272995539000000069039840          0000H000006903900                              000000000000000 0000000000000000000000000000C             0000000000000000   
050600000000000000000000000000                                                 000000000000               00000004762091                       3282168491GABRIEL        
0600400002NNNNNNNN2V000   24011341277000019758722100699171003000000001699840000000001699840UDEMY: ONLINE COURSES    HTTPSWWW.UDEMUS 829994107CA   1000N0043710 4 0112780
0601            000000                                                     901S NSAFDKSGHKDWTWLQOQHXNOC0000000000007 127800  0                               000000000  
060538127674584937400000000169984000        0000 000000000000                              000000000000000 0000000000000000000000000000F             0000000000000000  M
0700BBBBBBNNNNNNNN3V000Z  74934851277569535110003000000001004000000013536840000010750000152CASTILLO 1094    .       VALDIVIA     CL 601100000   9 1000E0429175   051278H
0701   A0121    000000                                                     8C0SYBANCO_CHILE    05695   000000000000  127700  0 V 1                           000000000  
0704          SD0002                              00750000DB                                           0000093500000000                             0000000000          
070546127756169013900000010750015200        0000 000000000000N                             000000000000000 0000000000000000000000000000F             0000000000000000   
070701000211004604020152        9D64189000D13C003598B947DB12BBA0010A808004800003A02001000010000000                  06                                00000000000000000 
0500400003NNNNNNNN4V000Z  24234261277000000470759423426001004000000073999032000000073999032MERCADOPAGO*WORLDSEG     BUENOS AIRES AR 507200000     1008N006645  4   12780
0501            000000                                                          423426         B0TVW94I0000000000007 127800  1 V                             000000000  
0502000000000000AR CO0101000000000000000000000000000000000000000000DD00000021110200000000000000000009620000000202A                   211102                             
0505461277464822474000000073999032          0000 000000073999                  P           000000000000000 0000000000000000000000000000G             0000000000000000  M
0500400004NNNNNNNN5V000Z  24234261277000000459240423426001004000000219600032000000219600032MERCADOPAGO*ROMIP        BUENOS AIRES AR 521100000     1008N824480  4   12780
0501            000000                                                          423426         MFDSTSNA0000000000007 127800  1 V                             000000000  
0502000000219600AR AN0601000000035004000000735100000000000000000000DA00000021100700000000000000000028550000000600A                   211007                             
0505461277149804679000000219600032          0000 000000219600                  P           000000028548000C0000000000000000000000000000F             0000000000000000  M
0600400005NNNNNNNN6V000   74234261276000000465748423426001003000000158324032000000158324032MERCADOPAGO*CETRANGOLOSCSBUENOS AIRES AR 591200000     1008N008572  4   12780
0601            000000                                                          423426         FLSPB1OS0000000000007 127800  1 V                             000000000  
0602000000000000AR CO0101000000000000000000000000000000000000000000DD00000021110200000000000000000020580000000432A                   211101                             
0605461276652001988000000000000   00        0000 000000000000                  P           000000000000000 0000000000000000000000000000P             0000000000000000   
0600400006NNNNNNNN7V000   74234261277000000466273423426001004000000118022032000000118022032MERCADOPAGO*MORGAN       BUENOS AIRES AR 573200000     1008N007419  4   12780
0601            000000                                                          423426         LWZ6EPWV0000000000007 127800  1 V                             000000000  
0602000000118022AR AN0101000000011153000000000000000000000000000000DA00000021100700000000000000000015340000000000A                   211006                             
0605461276430477456000000000000   00        0000 000000000000                  P           000000000000000 0000000000000000000000000000N             0000000000000000   
0700400007NNNNNNNN8V000Z  74066501277000210093125000000001004000000500000032000000500000032Los Quimbaletes Villa GiaVilla GiardinAR 601100000     1008N0432295 2 0512782
0701            000000                                                          Octagon S.A.   10000022000000000000  127800    5 2                           000000000  
0704          SD00025   2   2                     00000000DB                                           0000000000000000V001001382025162937859541925600000000000         
0705461277776172928000000500000032          0000 000000000000                              000000000000000 0000000000000000000000000000F             0000000000000000   
070701000211004604000032        7437FEE7000B3C00F02650FA0DCD582B010A808004800003A0A8010000005000000000000000000000000600000000000000000000000000000000                  